:0400000087EF3FF057
:107F0400A4EC3FF08EEC3FF0FDD70C6A0B6A0A6AD2
:107F1400096A000182EF3FF0C282C2B2FED7C3CF2A
:107F240001F0026A000E046E400E036EBEEC3FF0D8
:107F3400C450040D0150F324096E0250F4200A6E5B
:107F44009E9C1200C19AC198C150F00B0B09C16EDE
:107F5400C294C296C298C29A0F0E926EC09EC0502E
:107F6400C70B2809C06EC050F80B0409C06EC2804C
:107F74009E9C9D8CF28E1200000E066E04AE06D0FE
:107F8400036C041ED8B0042A010E066E02AE06D09D
:107F9400016C021ED8B0022A010E061A000E086EE9
:107FA400000E076E03500410D8B41CD0010E056EE9
:107FB40004D0D89003360436052A04AEFAD7D890F4
:107FC400073608360350015C04500258D8A005D087
:107FD4000350015E0450025A0780D89004320332E1
:107FE400052EEDD70650D8B404D0076C081ED8B0BF
:0C7FF400082A07C001F008C002F01200CB
:020000040020DA
:08000000FFFFFFFFFFFFFFFF00
:020000040030CA
:0E000000FF881F00FF8381FF0FC00FE00F403D
:00000001FF
